:100000001DC037C036C035C034C033C032C031C067
:1000100030C02FC02EC02DC02CC02BC02AC029C07C
:1000200028C027C026C025C024C023C08BC043C120
:100030006DC11FC01EC01DC01CC01BC011241FBE2F
:10004000CFEFD2E0DEBFCDBF11E0A0E0B1E0EEE641
:10005000F4E002C005900D92A230B107D9F721E07B
:10006000A2E0B1E001C01D92A534B207E1F763D16F
:10007000FCC1C6CF8093B0008091B10087FFFCCF58
:100080008091B00008951092820099E190938100D0
:10009000E6E8F0E090819D7F908398ED9093850055
:1000A00096E2909384008093240108959091030137
:1000B000E0910001AE2FB0E0AB5DBE4F8C93EF5FDF
:1000C000EF71962798279093030181E08E0FF0E05F
:1000D000EB5DFE4F60838F71809300010895682F60
:1000E0008FE7E4CFD89A8DE39CE90197F1F700C040
:1000F000000040910001409302012091230130E073
:10010000F901EB5DFE4F842F90E08096821B930BEC
:1001100060E270E083D180688083809103018F3F2B
:1001200011F4109203018091030181834E5F4F719E
:1001300040930001109203018091850080628093BA
:10014000850008951F920F920FB60F9211242F93DE
:100150003F934F935F936F937F938F939F93AF934F
:10016000BF93EF93FF938091860084FF04C01092A9
:100170000A0186E407C08091860082FF0DC01092BC
:100180000A0180E5ACDF80918000E0910901F0E098
:10019000EA5FFE4F80837EC08091860083FF04C0AB
:1001A00010920A018FE4EECF80910901282F30E0F0
:1001B00040918000F901EA5FFE4F408390910A016F
:1001C000911126C0E3E0F0E0C9010196BF0126D1FC
:1001D0008A5F9E4FDC018C918F3F09F456C0C901A4
:1001E0000296BF011BD18A5F9E4FFC0180818F3F29
:1001F00009F04BC080912401481347C081E08093EF
:100200000A0140930501109204011092090142C0B5
:10021000909104014F3F49F4911104C081E0809313
:10022000040138C01092040106C0992321F01092F5
:100230000A0185E40BC08230E9F4909105018091B8
:100240000801981729F010920A0183E448DF22C0C0
:1002500030910601832F90E020910701FC01383096
:1002600018F0ED5EFE4F02C0ED5EFE4F208310924F
:100270000A0138DFE0910901F0E0EA5FFE4F80916A
:1002800005019081892780930501809109018F5F85
:1002900080930901FF91EF91BF91AF919F918F9151
:1002A0007F916F915F914F913F912F910F900FBE72
:1002B0000F901F9018951F920F920FB60F92112456
:1002C0008F93EF93FF93E091230180910201E81750
:1002D00081F081E08E0F80932301F0E0EB5DFE4F13
:1002E000808180938000809123018F71809323010E
:1002F00005C0809185008F7D80938500FF91EF91EF
:100300008F910F900FBE0F901F9018951F920F9214
:100310000FB60F9211248F939F938DE39CE9019761
:10032000F1F700C00000D8989F918F910F900FBEF9
:100330000F901F901895D69AD49AD09AD79ABA9AB5
:10034000DF9A89E2A0DE8091B20081658093B200DD
:100350007894C8E080E08EDEC150E1F7C29A8FE960
:100360009FE00197F1F700C00000C29869E28EE7B4
:100370009DDE69E28EE79ADE69E28EE797DE69E24A
:100380008EE794DE69E28EE791DE69E28EE78EDE2B
:1003900069E28EE78BDE69E28EE788DEC29AC3E10E
:1003A000D1E010E0899166DE113011F4C29803C0EB
:1003B000163009F4DF9A1F5F1830A1F7C29ADF9850
:1003C0000BE111E0CBE0D1E083E1E82E81E0F82EF3
:1003D000B12CF70191917F016801F80181918F01A2
:1003E000892B48DEF601608168238881861719F021
:1003F00068838B2D5BDEB394F8E0BF1631F091E09B
:10040000B91201C0C2982196E4CF2CEF89EF90E099
:10041000215080409040E1F700C0C0CF97FB072EED
:1004200016F4009406D077FD08D00BD007FC05D059
:100430003EF4909581959F4F0895709561957F4FFB
:100440000895AA1BBB1B51E107C0AA1FBB1FA6171B
:10045000B70710F0A61BB70B881F991F5A95A9F76D
:0E04600080959095BC01CD010895F894FFCFD2
:02046E00022961
:00000001FF
